S00C00004C4142332E7372656316
S11300000C9434000C9446000C9446000C94460066
S11300100C9446000C9446000C9446000C94460044
S11300200C9446000C946C000C9446000C9446000E
S11300300C9446000C945A000C9446000C94460010
S11300400C9448000C9446000C9446000C94460012
S11300500C9446000C9446000C9446000C94460004
S11300600C9446000C94460011241FBECFEFD8E038
S1130070DEBFCDBF21E0A0E0B1E001C01D92A13000
S1130080B207E1F70E9483000C94A4000C940000D2
S11300901F920F920FB60F9211248F939F9395B1D5
S11300A081E0892785B99F918F910F900FBE0F90A2
S11300B01F9018951F920F920FB60F9211248F93D1
S11300C09F9395B182E0892785B99F918F910F9075
S11300D00FBE0F901F9018951F920F920FB60F929C
S11300E011248F93809100018F3120F48F5F8093CE
S11300F0000103C0109200011A9A8F910F900FBE55
S11301000F901F901895209A219A229AEEE6F0E01B
S113011080818160808385B5856085BDEFE6F0E0F0
S1130120808181608083E1E8F0E080818560808364
S1130130E0E7F0E0808181608083E1EBF0E08081A2
S10F0140876080837894FFCFF894FFCF91
S9030000FC
