S00C00004C4142352E7372656314
S11300000C9434000C943E000C943E000C945B0061
S11300100C943E000C943E000C943E000C943E0064
S11300200C943E000C943E000C943E000C943E0054
S11300300C943E000C943E000C943E000C943E0044
S11300400C943E000C943E000C943E000C943E0034
S11300500C943E000C943E000C943E000C943E0024
S11300600C943E000C943E0011241FBECFEFD8E048
S1130070DEBFCDBF0E948B000C94A6000C94000040
S11300809093C5008093C40088E18093C1008EE002
S11300908093C2000895E0ECF0E080818823ECF7BF
S11300A08091C6000895E0ECF0E0908195FFFDCFCB
S11300B08093C60008951F920F920FB60F921124D9
S11300C02F933F934F935F936F937F938F939F935C
S11300D0AF93BF93EF93FF931F990CC083E70E94E4
S11300E0530087E70E94530080E30E9453008AE094
S11300F00E945300FF91EF91BF91AF919F918F9117
S11301007F916F915F914F913F912F910F900FBE0F
S11301100F901F901895259A2798EBE6F0E08081C0
S113012080688083E8E6F0E0808181608083789451
S113013087E690E00E9440000E944B00C82F0E9476
S11301405300CF7DCA34C1F71D9AF6CFF894FFCF80
S9030000FC
