S00C00004C4142342E7372656315
S11300000C9434000C9446000C9446000C94460066
S11300100C9446000C9446000C9446000C94460044
S11300200C9446000C9446000C9446000C94460034
S11300300C9446000C9446000C9448000C94460022
S11300400C9446000C9446000C9446000C94460014
S11300500C9446000C9446000C9446000C94460004
S11300600C9446000C94460011241FBECFEFD8E038
S1130070DEBFCDBF21E0A0E0B1E001C01D92A230FF
S1130080B207E1F70E946B000C948D000C94000001
S11300901F920F920FB60F9211242F938F939F9359
S11300A08091000190910101843F21E0920730F496
S11300B00196909301018093000105C01092010103
S11300C010920001189A9F918F912F910F900FBE5B
S11300D00F901F90189584B18F6384B9EEE6F0E019
S11300E080818260808384B5826084BD89EF87BD0E
S11300F085B5836085BDE0E8F0E08081806480831D
S11301008FE49AE79093890080938800E1E8F0E017
S111011080818C6080837894FFCFF894FFCFB9
S9030000FC
